{
  "address": "0xa7A4acAfe14769FC323ec750299628e9f4c916Bf",
  "abi": [
    {
      "inputs": [
        {
          "internalType": "address",
          "name": "vrfCoordinator",
          "type": "address"
        },
        {
          "internalType": "uint256",
          "name": "subscriptionId",
          "type": "uint256"
        },
        {
          "internalType": "bytes32",
          "name": "keyHash",
          "type": "bytes32"
        }
      ],
      "stateMutability": "nonpayable",
      "type": "constructor"
    },
    {
      "inputs": [
        {
          "internalType": "uint256",
          "name": "sent",
          "type": "uint256"
        },
        {
          "internalType": "uint256",
          "name": "maximum",
          "type": "uint256"
        }
      ],
      "name": "BetTooLarge",
      "type": "error"
    },
    {
      "inputs": [
        {
          "internalType": "uint256",
          "name": "sent",
          "type": "uint256"
        },
        {
          "internalType": "uint256",
          "name": "minimum",
          "type": "uint256"
        }
      ],
      "name": "BetTooSmall",
      "type": "error"
    },
    {
      "inputs": [
        {
          "internalType": "uint256",
          "name": "available",
          "type": "uint256"
        },
        {
          "internalType": "uint256",
          "name": "required",
          "type": "uint256"
        }
      ],
      "name": "InsufficientBalance",
      "type": "error"
    },
    {
      "inputs": [],
      "name": "NotBetting",
      "type": "error"
    },
    {
      "inputs": [],
      "name": "NotIdle",
      "type": "error"
    },
    {
      "inputs": [
        {
          "internalType": "address",
          "name": "have",
          "type": "address"
        },
        {
          "internalType": "address",
          "name": "want",
          "type": "address"
        }
      ],
      "name": "OnlyCoordinatorCanFulfill",
      "type": "error"
    },
    {
      "inputs": [
        {
          "internalType": "address",
          "name": "have",
          "type": "address"
        },
        {
          "internalType": "address",
          "name": "owner",
          "type": "address"
        },
        {
          "internalType": "address",
          "name": "coordinator",
          "type": "address"
        }
      ],
      "name": "OnlyOwnerOrCoordinator",
      "type": "error"
    },
    {
      "inputs": [],
      "name": "ShoeNotReady",
      "type": "error"
    },
    {
      "inputs": [],
      "name": "TransferFailed",
      "type": "error"
    },
    {
      "inputs": [],
      "name": "VrfRequestPending",
      "type": "error"
    },
    {
      "inputs": [],
      "name": "ZeroAddress",
      "type": "error"
    },
    {
      "anonymous": false,
      "inputs": [
        {
          "indexed": true,
          "internalType": "address",
          "name": "bettor",
          "type": "address"
        },
        {
          "indexed": false,
          "internalType": "uint256",
          "name": "amount",
          "type": "uint256"
        },
        {
          "indexed": false,
          "internalType": "enum Baccarat.BetType",
          "name": "betType",
          "type": "uint8"
        }
      ],
      "name": "BetPlaced",
      "type": "event"
    },
    {
      "anonymous": false,
      "inputs": [
        {
          "indexed": false,
          "internalType": "uint128",
          "name": "generation",
          "type": "uint128"
        },
        {
          "indexed": false,
          "internalType": "uint16",
          "name": "shoeIndex",
          "type": "uint16"
        }
      ],
      "name": "BettingOpened",
      "type": "event"
    },
    {
      "anonymous": false,
      "inputs": [
        {
          "indexed": false,
          "internalType": "address",
          "name": "vrfCoordinator",
          "type": "address"
        }
      ],
      "name": "CoordinatorSet",
      "type": "event"
    },
    {
      "anonymous": false,
      "inputs": [
        {
          "indexed": true,
          "internalType": "address",
          "name": "depositor",
          "type": "address"
        },
        {
          "indexed": false,
          "internalType": "uint256",
          "name": "amount",
          "type": "uint256"
        }
      ],
      "name": "Deposit",
      "type": "event"
    },
    {
      "anonymous": false,
      "inputs": [
        {
          "indexed": true,
          "internalType": "address",
          "name": "from",
          "type": "address"
        },
        {
          "indexed": true,
          "internalType": "address",
          "name": "to",
          "type": "address"
        }
      ],
      "name": "OwnershipTransferRequested",
      "type": "event"
    },
    {
      "anonymous": false,
      "inputs": [
        {
          "indexed": true,
          "internalType": "address",
          "name": "from",
          "type": "address"
        },
        {
          "indexed": true,
          "internalType": "address",
          "name": "to",
          "type": "address"
        }
      ],
      "name": "OwnershipTransferred",
      "type": "event"
    },
    {
      "anonymous": false,
      "inputs": [
        {
          "indexed": true,
          "internalType": "address",
          "name": "bettor",
          "type": "address"
        },
        {
          "indexed": false,
          "internalType": "uint256",
          "name": "amount",
          "type": "uint256"
        }
      ],
      "name": "Payout",
      "type": "event"
    },
    {
      "anonymous": false,
      "inputs": [
        {
          "indexed": false,
          "internalType": "uint8",
          "name": "p0",
          "type": "uint8"
        },
        {
          "indexed": false,
          "internalType": "uint8",
          "name": "p1",
          "type": "uint8"
        },
        {
          "indexed": false,
          "internalType": "uint8",
          "name": "p2",
          "type": "uint8"
        },
        {
          "indexed": false,
          "internalType": "uint8",
          "name": "b0",
          "type": "uint8"
        },
        {
          "indexed": false,
          "internalType": "uint8",
          "name": "b1",
          "type": "uint8"
        },
        {
          "indexed": false,
          "internalType": "uint8",
          "name": "b2",
          "type": "uint8"
        },
        {
          "indexed": false,
          "internalType": "uint8",
          "name": "playerTotal",
          "type": "uint8"
        },
        {
          "indexed": false,
          "internalType": "uint8",
          "name": "bankerTotal",
          "type": "uint8"
        },
        {
          "indexed": false,
          "internalType": "enum Baccarat.Outcome",
          "name": "outcome",
          "type": "uint8"
        }
      ],
      "name": "RoundSettled",
      "type": "event"
    },
    {
      "anonymous": false,
      "inputs": [
        {
          "indexed": true,
          "internalType": "uint256",
          "name": "requestId",
          "type": "uint256"
        }
      ],
      "name": "ShoeRequested",
      "type": "event"
    },
    {
      "anonymous": false,
      "inputs": [
        {
          "indexed": true,
          "internalType": "uint256",
          "name": "requestId",
          "type": "uint256"
        },
        {
          "indexed": false,
          "internalType": "uint128",
          "name": "generation",
          "type": "uint128"
        },
        {
          "indexed": false,
          "internalType": "uint256",
          "name": "seed",
          "type": "uint256"
        }
      ],
      "name": "ShoeShuffled",
      "type": "event"
    },
    {
      "anonymous": false,
      "inputs": [
        {
          "indexed": true,
          "internalType": "address",
          "name": "to",
          "type": "address"
        },
        {
          "indexed": false,
          "internalType": "uint256",
          "name": "amount",
          "type": "uint256"
        }
      ],
      "name": "Withdrawal",
      "type": "event"
    },
    {
      "inputs": [],
      "name": "CALLBACK_GAS_LIMIT",
      "outputs": [
        {
          "internalType": "uint32",
          "name": "",
          "type": "uint32"
        }
      ],
      "stateMutability": "view",
      "type": "function"
    },
    {
      "inputs": [],
      "name": "CARDS_PER_DECK",
      "outputs": [
        {
          "internalType": "uint8",
          "name": "",
          "type": "uint8"
        }
      ],
      "stateMutability": "view",
      "type": "function"
    },
    {
      "inputs": [],
      "name": "CUT_CARD_POS",
      "outputs": [
        {
          "internalType": "uint16",
          "name": "",
          "type": "uint16"
        }
      ],
      "stateMutability": "view",
      "type": "function"
    },
    {
      "inputs": [],
      "name": "MAX_BET",
      "outputs": [
        {
          "internalType": "uint256",
          "name": "",
          "type": "uint256"
        }
      ],
      "stateMutability": "view",
      "type": "function"
    },
    {
      "inputs": [],
      "name": "MIN_BET",
      "outputs": [
        {
          "internalType": "uint256",
          "name": "",
          "type": "uint256"
        }
      ],
      "stateMutability": "view",
      "type": "function"
    },
    {
      "inputs": [],
      "name": "NUM_DECKS",
      "outputs": [
        {
          "internalType": "uint8",
          "name": "",
          "type": "uint8"
        }
      ],
      "stateMutability": "view",
      "type": "function"
    },
    {
      "inputs": [],
      "name": "NUM_WORDS",
      "outputs": [
        {
          "internalType": "uint32",
          "name": "",
          "type": "uint32"
        }
      ],
      "stateMutability": "view",
      "type": "function"
    },
    {
      "inputs": [],
      "name": "REQUEST_CONFIRMATIONS",
      "outputs": [
        {
          "internalType": "uint16",
          "name": "",
          "type": "uint16"
        }
      ],
      "stateMutability": "view",
      "type": "function"
    },
    {
      "inputs": [],
      "name": "TOTAL_CARDS",
      "outputs": [
        {
          "internalType": "uint16",
          "name": "",
          "type": "uint16"
        }
      ],
      "stateMutability": "view",
      "type": "function"
    },
    {
      "inputs": [],
      "name": "acceptOwnership",
      "outputs": [],
      "stateMutability": "nonpayable",
      "type": "function"
    },
    {
      "inputs": [
        {
          "internalType": "uint8",
          "name": "card",
          "type": "uint8"
        }
      ],
      "name": "cardInfo",
      "outputs": [
        {
          "internalType": "uint8",
          "name": "suit",
          "type": "uint8"
        },
        {
          "internalType": "uint8",
          "name": "rank",
          "type": "uint8"
        },
        {
          "internalType": "string",
          "name": "rankStr",
          "type": "string"
        },
        {
          "internalType": "string",
          "name": "suitStr",
          "type": "string"
        },
        {
          "internalType": "uint8",
          "name": "points",
          "type": "uint8"
        }
      ],
      "stateMutability": "pure",
      "type": "function"
    },
    {
      "inputs": [],
      "name": "clearPendingRequest",
      "outputs": [],
      "stateMutability": "nonpayable",
      "type": "function"
    },
    {
      "inputs": [],
      "name": "contractBalance",
      "outputs": [
        {
          "internalType": "uint256",
          "name": "",
          "type": "uint256"
        }
      ],
      "stateMutability": "view",
      "type": "function"
    },
    {
      "inputs": [],
      "name": "deal",
      "outputs": [],
      "stateMutability": "nonpayable",
      "type": "function"
    },
    {
      "inputs": [],
      "name": "depositHouse",
      "outputs": [],
      "stateMutability": "payable",
      "type": "function"
    },
    {
      "inputs": [
        {
          "internalType": "uint256",
          "name": "index",
          "type": "uint256"
        }
      ],
      "name": "getBet",
      "outputs": [
        {
          "internalType": "address",
          "name": "",
          "type": "address"
        },
        {
          "internalType": "uint256",
          "name": "",
          "type": "uint256"
        },
        {
          "internalType": "enum Baccarat.BetType",
          "name": "",
          "type": "uint8"
        }
      ],
      "stateMutability": "view",
      "type": "function"
    },
    {
      "inputs": [],
      "name": "getBetCount",
      "outputs": [
        {
          "internalType": "uint256",
          "name": "",
          "type": "uint256"
        }
      ],
      "stateMutability": "view",
      "type": "function"
    },
    {
      "inputs": [],
      "name": "getLastRound",
      "outputs": [
        {
          "internalType": "uint8[3]",
          "name": "playerCards",
          "type": "uint8[3]"
        },
        {
          "internalType": "uint8[3]",
          "name": "bankerCards",
          "type": "uint8[3]"
        },
        {
          "internalType": "uint8",
          "name": "playerCount",
          "type": "uint8"
        },
        {
          "internalType": "uint8",
          "name": "bankerCount",
          "type": "uint8"
        },
        {
          "internalType": "uint8",
          "name": "playerTotal",
          "type": "uint8"
        },
        {
          "internalType": "uint8",
          "name": "bankerTotal",
          "type": "uint8"
        },
        {
          "internalType": "enum Baccarat.Outcome",
          "name": "outcome",
          "type": "uint8"
        },
        {
          "internalType": "bool",
          "name": "settled",
          "type": "bool"
        }
      ],
      "stateMutability": "view",
      "type": "function"
    },
    {
      "inputs": [],
      "name": "openBetting",
      "outputs": [],
      "stateMutability": "nonpayable",
      "type": "function"
    },
    {
      "inputs": [],
      "name": "owner",
      "outputs": [
        {
          "internalType": "address",
          "name": "",
          "type": "address"
        }
      ],
      "stateMutability": "view",
      "type": "function"
    },
    {
      "inputs": [
        {
          "internalType": "enum Baccarat.BetType",
          "name": "betType",
          "type": "uint8"
        }
      ],
      "name": "placeBet",
      "outputs": [],
      "stateMutability": "payable",
      "type": "function"
    },
    {
      "inputs": [
        {
          "internalType": "uint256",
          "name": "requestId",
          "type": "uint256"
        },
        {
          "internalType": "uint256[]",
          "name": "randomWords",
          "type": "uint256[]"
        }
      ],
      "name": "rawFulfillRandomWords",
      "outputs": [],
      "stateMutability": "nonpayable",
      "type": "function"
    },
    {
      "inputs": [],
      "name": "remainingCards",
      "outputs": [
        {
          "internalType": "uint16",
          "name": "",
          "type": "uint16"
        }
      ],
      "stateMutability": "view",
      "type": "function"
    },
    {
      "inputs": [],
      "name": "requestShoe",
      "outputs": [],
      "stateMutability": "nonpayable",
      "type": "function"
    },
    {
      "inputs": [
        {
          "internalType": "uint256",
          "name": "",
          "type": "uint256"
        }
      ],
      "name": "s_bets",
      "outputs": [
        {
          "internalType": "address",
          "name": "bettor",
          "type": "address"
        },
        {
          "internalType": "uint256",
          "name": "amount",
          "type": "uint256"
        },
        {
          "internalType": "enum Baccarat.BetType",
          "name": "betType",
          "type": "uint8"
        }
      ],
      "stateMutability": "view",
      "type": "function"
    },
    {
      "inputs": [],
      "name": "s_generation",
      "outputs": [
        {
          "internalType": "uint128",
          "name": "",
          "type": "uint128"
        }
      ],
      "stateMutability": "view",
      "type": "function"
    },
    {
      "inputs": [],
      "name": "s_keyHash",
      "outputs": [
        {
          "internalType": "bytes32",
          "name": "",
          "type": "bytes32"
        }
      ],
      "stateMutability": "view",
      "type": "function"
    },
    {
      "inputs": [],
      "name": "s_lastRound",
      "outputs": [
        {
          "internalType": "uint8",
          "name": "playerCount",
          "type": "uint8"
        },
        {
          "internalType": "uint8",
          "name": "bankerCount",
          "type": "uint8"
        },
        {
          "internalType": "uint8",
          "name": "playerTotal",
          "type": "uint8"
        },
        {
          "internalType": "uint8",
          "name": "bankerTotal",
          "type": "uint8"
        },
        {
          "internalType": "enum Baccarat.Outcome",
          "name": "outcome",
          "type": "uint8"
        },
        {
          "internalType": "bool",
          "name": "settled",
          "type": "bool"
        }
      ],
      "stateMutability": "view",
      "type": "function"
    },
    {
      "inputs": [],
      "name": "s_pendingVrfRequestId",
      "outputs": [
        {
          "internalType": "uint256",
          "name": "",
          "type": "uint256"
        }
      ],
      "stateMutability": "view",
      "type": "function"
    },
    {
      "inputs": [],
      "name": "s_roundState",
      "outputs": [
        {
          "internalType": "enum Baccarat.RoundState",
          "name": "",
          "type": "uint8"
        }
      ],
      "stateMutability": "view",
      "type": "function"
    },
    {
      "inputs": [],
      "name": "s_shoeIndex",
      "outputs": [
        {
          "internalType": "uint16",
          "name": "",
          "type": "uint16"
        }
      ],
      "stateMutability": "view",
      "type": "function"
    },
    {
      "inputs": [],
      "name": "s_shoeReady",
      "outputs": [
        {
          "internalType": "bool",
          "name": "",
          "type": "bool"
        }
      ],
      "stateMutability": "view",
      "type": "function"
    },
    {
      "inputs": [],
      "name": "s_shoeSeed",
      "outputs": [
        {
          "internalType": "uint256",
          "name": "",
          "type": "uint256"
        }
      ],
      "stateMutability": "view",
      "type": "function"
    },
    {
      "inputs": [],
      "name": "s_subscriptionId",
      "outputs": [
        {
          "internalType": "uint256",
          "name": "",
          "type": "uint256"
        }
      ],
      "stateMutability": "view",
      "type": "function"
    },
    {
      "inputs": [],
      "name": "s_vrfCoordinator",
      "outputs": [
        {
          "internalType": "contract IVRFCoordinatorV2Plus",
          "name": "",
          "type": "address"
        }
      ],
      "stateMutability": "view",
      "type": "function"
    },
    {
      "inputs": [
        {
          "internalType": "address",
          "name": "_vrfCoordinator",
          "type": "address"
        }
      ],
      "name": "setCoordinator",
      "outputs": [],
      "stateMutability": "nonpayable",
      "type": "function"
    },
    {
      "inputs": [
        {
          "internalType": "address",
          "name": "to",
          "type": "address"
        }
      ],
      "name": "transferOwnership",
      "outputs": [],
      "stateMutability": "nonpayable",
      "type": "function"
    },
    {
      "inputs": [
        {
          "internalType": "uint256",
          "name": "amount",
          "type": "uint256"
        }
      ],
      "name": "withdrawHouse",
      "outputs": [],
      "stateMutability": "nonpayable",
      "type": "function"
    },
    {
      "stateMutability": "payable",
      "type": "receive"
    }
  ],
  "transactionHash": "0x68c9e4e8b03fcf4c5e7bf788c2c8a90de563448574aad7377c501dab08d4d8e6",
  "args": [
    "0x9DdfaCa8183c41ad55329BdeeD9F6A8d53168B1B",
    "89744928075148980794698441120961661979958683842770091088662338677598947743826",
    "0x787d74caea10b2b357790d5b5247c2f63d1d91572a9846f780606e4d953677ae"
  ],
  "numDeployments": 1,
  "solcInputHash": "c0b4fcfba59faa4a0fb7225d2d6fdd3a",
  "bytecode": "0x60806040523480156200001157600080fd5b50604051620046a3380380620046a3833981810160405281019062000037919062000406565b82338060008073ffffffffffffffffffffffffffffffffffffffff168273ffffffffffffffffffffffffffffffffffffffff1603620000ad576040517f08c379a0000000000000000000000000000000000000000000000000000000008152600401620000a490620004c3565b60405180910390fd5b816000806101000a81548173ffffffffffffffffffffffffffffffffffffffff021916908373ffffffffffffffffffffffffffffffffffffffff160217905550600073ffffffffffffffffffffffffffffffffffffffff168173ffffffffffffffffffffffffffffffffffffffff161462000134576200013381620001f760201b60201c565b5b505050600073ffffffffffffffffffffffffffffffffffffffff168173ffffffffffffffffffffffffffffffffffffffff16036200019e576040517fd92e233d00000000000000000000000000000000000000000000000000000000815260040160405180910390fd5b80600260006101000a81548173ffffffffffffffffffffffffffffffffffffffff021916908373ffffffffffffffffffffffffffffffffffffffff16021790555050816003819055508060048190555050505062000557565b3373ffffffffffffffffffffffffffffffffffffffff168173ffffffffffffffffffffffffffffffffffffffff160362000268576040517f08c379a00000000000000000000000000000000000000000000000000000000081526004016200025f9062000535565b60405180910390fd5b80600160006101000a81548173ffffffffffffffffffffffffffffffffffffffff021916908373ffffffffffffffffffffffffffffffffffffffff1602179055508073ffffffffffffffffffffffffffffffffffffffff1660008054906101000a900473ffffffffffffffffffffffffffffffffffffffff1673ffffffffffffffffffffffffffffffffffffffff167fed8889f560326eb138920d842192f0eb3dd22b4f139c87a2c57538e05bae127860405160405180910390a350565b600080fd5b600073ffffffffffffffffffffffffffffffffffffffff82169050919050565b600062000358826200032b565b9050919050565b6200036a816200034b565b81146200037657600080fd5b50565b6000815190506200038a816200035f565b92915050565b6000819050919050565b620003a58162000390565b8114620003b157600080fd5b50565b600081519050620003c5816200039a565b92915050565b6000819050919050565b620003e081620003cb565b8114620003ec57600080fd5b50565b6000815190506200040081620003d5565b92915050565b60008060006060848603121562000422576200042162000326565b5b6000620004328682870162000379565b93505060206200044586828701620003b4565b92505060406200045886828701620003ef565b9150509250925092565b600082825260208201905092915050565b7f43616e6e6f7420736574206f776e657220746f207a65726f0000000000000000600082015250565b6000620004ab60188362000462565b9150620004b88262000473565b602082019050919050565b60006020820190508181036000830152620004de816200049c565b9050919050565b7f43616e6e6f74207472616e7366657220746f2073656c66000000000000000000600082015250565b60006200051d60178362000462565b91506200052a82620004e5565b602082019050919050565b6000602082019050818103600083015262000550816200050e565b9050919050565b61413c80620005676000396000f3fe6080604052600436106102285760003560e01c806379ba509711610123578063a8636b9b116100ab578063e10b020c1161006f578063e10b020c146107bd578063e5edd008146107d4578063e903c8ec14610813578063f2fde38b1461083e578063f4f95a1e146108675761027d565b8063a8636b9b14610707578063b93dab0b14610711578063bd42b0141461073c578063bec7791d14610767578063c78e45be146107925761027d565b80638b7afe2e116100f25780638b7afe2e146106325780638da5cb5b1461065d5780638ea98117146106885780639eccacf6146106b1578063a73ea76f146106dc5761027d565b806379ba50971461059a5780637d41ebb0146105b15780637e95b523146105dc5780638ac00021146106075761027d565b80633837e107116101b15780634f80f1c4116101755780634f80f1c4146104d7578063553df021146105025780636540742f1461051957806367f082b01461054457806372cf6e341461056f5761027d565b80633837e1071461041c5780634231a2c314610447578063430468441461047957806345bb327b146104955780634c5842a6146104c05761027d565b806316017796116101f857806316017796146103475780631fe543e31461035e578063232184111461038757806328c05d12146103b057806333d608f1146103f15761027d565b8062b79ce714610282578063061e494f146102ad5780630b9b765d146102ec57806314211cee146103175761027d565b3661027d573373ffffffffffffffffffffffffffffffffffffffff167fe1fffcc4923d04b559f4d29a8bfc6cda04eb5b0d3c460751c2402c5c5cc9109c346040516102739190613008565b60405180910390a2005b600080fd5b34801561028e57600080fd5b50610297610892565b6040516102a49190613008565b60405180910390f35b3480156102b957600080fd5b506102d460048036038101906102cf9190613059565b610898565b6040516102e39392919061313e565b60405180910390f35b3480156102f857600080fd5b50610301610985565b60405161030e91906131bd565b60405180910390f35b34801561032357600080fd5b5061032c610998565b60405161033e96959493929190613257565b60405180910390f35b34801561035357600080fd5b5061035c610a10565b005b34801561036a57600080fd5b506103856004803603810190610380919061331d565b610c13565b005b34801561039357600080fd5b506103ae60048036038101906103a99190613059565b610cd9565b005b3480156103bc57600080fd5b506103d760048036038101906103d291906133a9565b610dfe565b6040516103e8959493929190613466565b60405180910390f35b3480156103fd57600080fd5b5061040661127a565b60405161041391906134e6565b60405180910390f35b34801561042857600080fd5b50610431611281565b60405161043e9190613501565b60405180910390f35b34801561045357600080fd5b5061045c611294565b6040516104709897969594939291906135c7565b60405180910390f35b610493600480360381019061048e919061366e565b6114a2565b005b3480156104a157600080fd5b506104aa6116ff565b6040516104b791906136b4565b60405180910390f35b3480156104cc57600080fd5b506104d5611705565b005b3480156104e357600080fd5b506104ec611717565b6040516104f991906136cf565b60405180910390f35b34801561050e57600080fd5b5061051761171c565b005b34801561052557600080fd5b5061052e611c07565b60405161053b9190613008565b60405180910390f35b34801561055057600080fd5b50610559611c12565b6040516105669190613707565b60405180910390f35b34801561057b57600080fd5b50610584611c17565b60405161059191906134e6565b60405180910390f35b3480156105a657600080fd5b506105af611c1c565b005b3480156105bd57600080fd5b506105c6611db1565b6040516105d39190613707565b60405180910390f35b3480156105e857600080fd5b506105f1611db7565b6040516105fe9190613008565b60405180910390f35b34801561061357600080fd5b5061061c611dc3565b6040516106299190613008565b60405180910390f35b34801561063e57600080fd5b50610647611dc9565b6040516106549190613008565b60405180910390f35b34801561066957600080fd5b50610672611dd1565b60405161067f9190613722565b60405180910390f35b34801561069457600080fd5b506106af60048036038101906106aa9190613769565b611dfa565b005b3480156106bd57600080fd5b506106c6611fdb565b6040516106d391906137f5565b60405180910390f35b3480156106e857600080fd5b506106f1612001565b6040516106fe91906136cf565b60405180910390f35b61070f612006565b005b34801561071d57600080fd5b5061072661205e565b6040516107339190613008565b60405180910390f35b34801561074857600080fd5b5061075161206b565b60405161075e9190613707565b60405180910390f35b34801561077357600080fd5b5061077c612090565b6040516107899190613707565b60405180910390f35b34801561079e57600080fd5b506107a76120a4565b6040516107b49190613008565b60405180910390f35b3480156107c957600080fd5b506107d26120aa565b005b3480156107e057600080fd5b506107fb60048036038101906107f69190613059565b6122a4565b60405161080a9392919061313e565b60405180910390f35b34801561081f57600080fd5b5061082861230b565b604051610835919061383b565b60405180910390f35b34801561084a57600080fd5b5061086560048036038101906108609190613769565b61232d565b005b34801561087357600080fd5b5061087c612341565b6040516108899190613707565b60405180910390f35b600c5481565b600080600080600b85815481106108b2576108b1613856565b5b90600052602060002090600302016040518060600160405290816000820160009054906101000a900473ffffffffffffffffffffffffffffffffffffffff1673ffffffffffffffffffffffffffffffffffffffff1673ffffffffffffffffffffffffffffffffffffffff168152602001600182015481526020016002820160009054906101000a900460ff1660028111156109505761094f6130c7565b5b6002811115610962576109616130c7565b5b815250509050806000015181602001518260400151935093509350509193909250565b600760139054906101000a900460ff1681565b60088060020160009054906101000a900460ff16908060020160019054906101000a900460ff16908060020160029054906101000a900460ff16908060020160039054906101000a900460ff16908060020160049054906101000a900460ff16908060020160059054906101000a900460ff16905086565b610a18612347565b60006002811115610a2c57610a2b6130c7565b5b600760139054906101000a900460ff166002811115610a4e57610a4d6130c7565b5b14610a85576040517fea2a938f00000000000000000000000000000000000000000000000000000000815260040160405180910390fd5b6000600c5414610ac1576040517fa7af8d4d00000000000000000000000000000000000000000000000000000000815260040160405180910390fd5b6000600260009054906101000a900473ffffffffffffffffffffffffffffffffffffffff1673ffffffffffffffffffffffffffffffffffffffff16639b1c385e6040518060c0016040528060045481526020016003548152602001600361ffff168152602001620186a063ffffffff168152602001600163ffffffff168152602001610b5d6040518060200160405280600015158152506123d7565b8152506040518263ffffffff1660e01b8152600401610b7c919061399f565b6020604051808303816000875af1158015610b9b573d6000803e3d6000fd5b505050506040513d601f19601f82011682018060405250810190610bbf91906139d6565b905080600c819055506000600760126101000a81548160ff021916908315150217905550807f252948b9f02e7b9c3474b3bd1fd22ece744ea3d55b13e6731a51fa6cad1fb61c60405160405180910390a250565b600260009054906101000a900473ffffffffffffffffffffffffffffffffffffffff1673ffffffffffffffffffffffffffffffffffffffff163373ffffffffffffffffffffffffffffffffffffffff1614610cc95733600260009054906101000a900473ffffffffffffffffffffffffffffffffffffffff166040517f1cf993f4000000000000000000000000000000000000000000000000000000008152600401610cc0929190613a03565b60405180910390fd5b610cd483838361246f565b505050565b610ce1612347565b60006002811115610cf557610cf46130c7565b5b600760139054906101000a900460ff166002811115610d1757610d166130c7565b5b14610d4e576040517fea2a938f00000000000000000000000000000000000000000000000000000000815260040160405180910390fd5b47811115610d955747816040517fcf479181000000000000000000000000000000000000000000000000000000008152600401610d8c929190613a2c565b60405180910390fd5b610da6610da0611dd1565b826125ad565b610dae611dd1565b73ffffffffffffffffffffffffffffffffffffffff167f7fcf532c15f0a6db0bd6d0e038bea71d30d808c7d98cb3bf7268a95bf5081b6582604051610df39190613008565b60405180910390a250565b6000806060806000600d86610e139190613ab3565b9450600d86610e229190613ae4565b9350610e2d86612655565b90506000604051806101a001604052806040518060400160405280600181526020017f410000000000000000000000000000000000000000000000000000000000000081525081526020016040518060400160405280600181526020017f320000000000000000000000000000000000000000000000000000000000000081525081526020016040518060400160405280600181526020017f330000000000000000000000000000000000000000000000000000000000000081525081526020016040518060400160405280600181526020017f340000000000000000000000000000000000000000000000000000000000000081525081526020016040518060400160405280600181526020017f350000000000000000000000000000000000000000000000000000000000000081525081526020016040518060400160405280600181526020017f360000000000000000000000000000000000000000000000000000000000000081525081526020016040518060400160405280600181526020017f370000000000000000000000000000000000000000000000000000000000000081525081526020016040518060400160405280600181526020017f380000000000000000000000000000000000000000000000000000000000000081525081526020016040518060400160405280600181526020017f390000000000000000000000000000000000000000000000000000000000000081525081526020016040518060400160405280600281526020017f313000000000000000000000000000000000000000000000000000000000000081525081526020016040518060400160405280600181526020017f4a0000000000000000000000000000000000000000000000000000000000000081525081526020016040518060400160405280600181526020017f510000000000000000000000000000000000000000000000000000000000000081525081526020016040518060400160405280600181526020017f4b000000000000000000000000000000000000000000000000000000000000008152508152509050600060405180608001604052806040518060400160405280600681526020017f537061646573000000000000000000000000000000000000000000000000000081525081526020016040518060400160405280600681526020017f486561727473000000000000000000000000000000000000000000000000000081525081526020016040518060400160405280600881526020017f4469616d6f6e647300000000000000000000000000000000000000000000000081525081526020016040518060400160405280600581526020017f436c7562730000000000000000000000000000000000000000000000000000008152508152509050818660ff16600d811061124b5761124a613856565b5b60200201519450808760ff166004811061126857611267613856565b5b60200201519350505091939590929450565b620186a081565b600760129054906101000a900460ff1681565b61129c612f48565b6112a4612f48565b60008060008060008060006008604051806101000160405290816000820160038060200260405190810160405280929190826003801561131f576020028201916000905b82829054906101000a900460ff1660ff16815260200190600101906020826000010492830192600103820291508084116112e85790505b505050505081526020016001820160038060200260405190810160405280929190826003801561138a576020028201916000905b82829054906101000a900460ff1660ff16815260200190600101906020826000010492830192600103820291508084116113535790505b505050505081526020016002820160009054906101000a900460ff1660ff1660ff1681526020016002820160019054906101000a900460ff1660ff1660ff1681526020016002820160029054906101000a900460ff1660ff1660ff1681526020016002820160039054906101000a900460ff1660ff1660ff1681526020016002820160049054906101000a900460ff16600281111561142c5761142b6130c7565b5b600281111561143e5761143d6130c7565b5b81526020016002820160059054906101000a900460ff1615151515815250509050806000015181602001518260400151836060015184608001518560a001518660c001518760e0015198509850985098509850985098509850509091929394959697565b600160028111156114b6576114b56130c7565b5b600760139054906101000a900460ff1660028111156114d8576114d76130c7565b5b1461150f576040517f73d54d1a00000000000000000000000000000000000000000000000000000000815260040160405180910390fd5b66038d7ea4c68000341015611564573466038d7ea4c680006040517fac4d5cf800000000000000000000000000000000000000000000000000000000815260040161155b929190613a2c565b60405180910390fd5b678ac7230489e800003411156115bb5734678ac7230489e800006040517f69da332c0000000000000000000000000000000000000000000000000000000081526004016115b2929190613a2c565b60405180910390fd5b600b60405180606001604052803373ffffffffffffffffffffffffffffffffffffffff1681526020013481526020018360028111156115fd576115fc6130c7565b5b815250908060018154018082558091505060019003906000526020600020906003020160009091909190915060008201518160000160006101000a81548173ffffffffffffffffffffffffffffffffffffffff021916908373ffffffffffffffffffffffffffffffffffffffff1602179055506020820151816001015560408201518160020160006101000a81548160ff021916908360028111156116a5576116a46130c7565b5b021790555050503373ffffffffffffffffffffffffffffffffffffffff167f7df19a783369d9cefb06e18b396518f817b48766b74157758eda633a62f58fa734836040516116f4929190613b15565b60405180910390a250565b60045481565b61170d612347565b6000600c81905550565b603481565b611724612347565b60016002811115611738576117376130c7565b5b600760139054906101000a900460ff16600281111561175a576117596130c7565b5b14611791576040517f73d54d1a00000000000000000000000000000000000000000000000000000000815260040160405180910390fd5b6002600760136101000a81548160ff021916908360028111156117b7576117b66130c7565b5b021790555060006117c66126a7565b905060006117d26126a7565b905060006117de6126a7565b905060006117ea6126a7565b90506000600a6117f984612655565b61180287612655565b61180c9190613b3e565b6118169190613ae4565b90506000600a61182584612655565b61182e87612655565b6118389190613b3e565b6118429190613ae4565b905060008060006002905060006002905060088660ff16108015611869575060088560ff16105b156118f357600060058760ff16116118b0576118836126a7565b9450600a61189086612655565b8861189b9190613b3e565b6118a59190613ae4565b965060039250600190505b6118bb868287612783565b156118f1576118c86126a7565b9350600a6118d585612655565b876118e09190613b3e565b6118ea9190613ae4565b9550600391505b505b89600860000160006003811061190c5761190b613856565b5b602091828204019190066101000a81548160ff021916908360ff16021790555087600860000160016003811061194557611944613856565b5b602091828204019190066101000a81548160ff021916908360ff16021790555083600860000160026003811061197e5761197d613856565b5b602091828204019190066101000a81548160ff021916908360ff1602179055508860086001016000600381106119b7576119b6613856565b5b602091828204019190066101000a81548160ff021916908360ff1602179055508660086001016001600381106119f0576119ef613856565b5b602091828204019190066101000a81548160ff021916908360ff160217905550826008600101600260038110611a2957611a28613856565b5b602091828204019190066101000a81548160ff021916908360ff16021790555081600860020160006101000a81548160ff021916908360ff16021790555080600860020160016101000a81548160ff021916908360ff16021790555085600860020160026101000a81548160ff021916908360ff16021790555084600860020160036101000a81548160ff021916908360ff16021790555060008560ff168760ff161115611ada5760009050611af7565b8660ff168660ff161115611af15760019050611af6565b600290505b5b80600860020160046101000a81548160ff02191690836002811115611b1f57611b1e6130c7565b5b02179055506001600860020160056101000a81548160ff0219169083151502179055507ff0c2366ee3c305d4269197faf4e1d1355508d8c5426f15c3f1f98dc7d11ee8238b8a878d8c898d8d89604051611b8199989796959493929190613b73565b60405180910390a1611b928161285f565b61018061ffff16600760009054906101000a900461ffff1661ffff1610611bcf576000600760126101000a81548160ff0219169083151502179055505b6000600760136101000a81548160ff02191690836002811115611bf557611bf46130c7565b5b02179055505050505050505050505050565b66038d7ea4c6800081565b600381565b600181565b600160009054906101000a900473ffffffffffffffffffffffffffffffffffffffff1673ffffffffffffffffffffffffffffffffffffffff163373ffffffffffffffffffffffffffffffffffffffff1614611cac576040517f08c379a0000000000000000000000000000000000000000000000000000000008152600401611ca390613c4c565b60405180910390fd5b60008060009054906101000a900473ffffffffffffffffffffffffffffffffffffffff169050336000806101000a81548173ffffffffffffffffffffffffffffffffffffffff021916908373ffffffffffffffffffffffffffffffffffffffff1602179055506000600160006101000a81548173ffffffffffffffffffffffffffffffffffffffff021916908373ffffffffffffffffffffffffffffffffffffffff1602179055503373ffffffffffffffffffffffffffffffffffffffff168173ffffffffffffffffffffffffffffffffffffffff167f8be0079c531659141344cd1fd0a4f28419497f9722a3daafe3b4186f6b6457e060405160405180910390a350565b6101a081565b678ac7230489e8000081565b60035481565b600047905090565b60008060009054906101000a900473ffffffffffffffffffffffffffffffffffffffff16905090565b611e02611dd1565b73ffffffffffffffffffffffffffffffffffffffff163373ffffffffffffffffffffffffffffffffffffffff1614158015611e8b5750600260009054906101000a900473ffffffffffffffffffffffffffffffffffffffff1673ffffffffffffffffffffffffffffffffffffffff163373ffffffffffffffffffffffffffffffffffffffff1614155b15611efa5733611e99611dd1565b600260009054906101000a900473ffffffffffffffffffffffffffffffffffffffff166040517f061db9c1000000000000000000000000000000000000000000000000000000008152600401611ef193929190613c6c565b60405180910390fd5b600073ffffffffffffffffffffffffffffffffffffffff168173ffffffffffffffffffffffffffffffffffffffff1603611f60576040517fd92e233d00000000000000000000000000000000000000000000000000000000815260040160405180910390fd5b80600260006101000a81548173ffffffffffffffffffffffffffffffffffffffff021916908373ffffffffffffffffffffffffffffffffffffffff1602179055507fd1a6a14209a385a964d036e404cb5cfb71f4000cdb03c9366292430787261be681604051611fd09190613722565b60405180910390a150565b600260009054906101000a900473ffffffffffffffffffffffffffffffffffffffff1681565b600881565b61200e612347565b3373ffffffffffffffffffffffffffffffffffffffff167fe1fffcc4923d04b559f4d29a8bfc6cda04eb5b0d3c460751c2402c5c5cc9109c346040516120549190613008565b60405180910390a2565b6000600b80549050905090565b6000600760009054906101000a900461ffff166101a061208b9190613ca3565b905090565b600760009054906101000a900461ffff1681565b60065481565b6120b2612347565b600060028111156120c6576120c56130c7565b5b600760139054906101000a900460ff1660028111156120e8576120e76130c7565b5b1461211f576040517fea2a938f00000000000000000000000000000000000000000000000000000000815260040160405180910390fd5b600760129054906101000a900460ff16612165576040517fa82bf9b500000000000000000000000000000000000000000000000000000000815260040160405180910390fd5b600b60006121739190612f6a565b6008600080820160006121869190612f8e565b6001820160006121969190612f8e565b6002820160006101000a81549060ff02191690556002820160016101000a81549060ff02191690556002820160026101000a81549060ff02191690556002820160036101000a81549060ff02191690556002820160046101000a81549060ff02191690556002820160056101000a81549060ff021916905550506001600760136101000a81548160ff02191690836002811115612236576122356130c7565b5b02179055507fde630fcdfd975b7dcaa4a200ade87863536ad19f947423da79385db9ec72e5ae600760029054906101000a90046fffffffffffffffffffffffffffffffff16600760009054906101000a900461ffff1660405161229a929190613cd9565b60405180910390a1565b600b81815481106122b457600080fd5b90600052602060002090600302016000915090508060000160009054906101000a900473ffffffffffffffffffffffffffffffffffffffff16908060010154908060020160009054906101000a900460ff16905083565b600760029054906101000a90046fffffffffffffffffffffffffffffffff1681565b612335612347565b61233e81612b98565b50565b61018081565b60008054906101000a900473ffffffffffffffffffffffffffffffffffffffff1673ffffffffffffffffffffffffffffffffffffffff163373ffffffffffffffffffffffffffffffffffffffff16146123d5576040517f08c379a00000000000000000000000000000000000000000000000000000000081526004016123cc90613d4e565b60405180910390fd5b565b60607f92fd13387c7fe7befbc38d303d6468778fb9731bc4583f17d92989c6fcfdeaaa8260405160240161240b9190613d99565b604051602081830303815290604052907bffffffffffffffffffffffffffffffffffffffffffffffffffffffff19166020820180517bffffffffffffffffffffffffffffffffffffffffffffffffffffffff83818316178352505050509050919050565b6000600c819055508181600081811061248b5761248a613856565b5b905060200201356006819055506000600760006101000a81548161ffff021916908361ffff1602179055506007600281819054906101000a90046fffffffffffffffffffffffffffffffff16809291906124e490613db4565b91906101000a8154816fffffffffffffffffffffffffffffffff02191690836fffffffffffffffffffffffffffffffff160217905550506001600760126101000a81548160ff021916908315150217905550827f4090bf16b50b89c4df75bc348933f1767d11456cd5e29c0731ddf58018fd3660600760029054906101000a90046fffffffffffffffffffffffffffffffff168484600081811061258b5761258a613856565b5b905060200201356040516125a0929190613dec565b60405180910390a2505050565b60008273ffffffffffffffffffffffffffffffffffffffff16826040516125d390613e46565b60006040518083038185875af1925050503d8060008114612610576040519150601f19603f3d011682016040523d82523d6000602084013e612615565b606091505b5050905080612650576040517f90b8ec1800000000000000000000000000000000000000000000000000000000815260040160405180910390fd5b505050565b600080600d836126659190613ae4565b905060008160ff160361267c5760019150506126a2565b60088160ff161161269c576001816126949190613b3e565b9150506126a2565b60009150505b919050565b600080600760009054906101000a900461ffff1690506000816101a06126cd9190613ca3565b90506000600654836040516020016126e6929190613eb2565b6040516020818303038152906040528051906020012060001c905060008261ffff16826127139190613ede565b8461271e9190613f0f565b905061272981612cc4565b9450600061273685612cc4565b90508161ffff168561ffff1614612752576127518282612d28565b5b60018561275f9190613f0f565b600760006101000a81548161ffff021916908361ffff160217905550505050505090565b600060078460ff16106127995760009050612858565b60028460ff16116127ad5760019050612858565b826127c15760058460ff1611159050612858565b60006127cc83612655565b905060038560ff16036127e95760088160ff161415915050612858565b60048560ff16036128145760028160ff161015801561280c575060078160ff1611155b915050612858565b60058560ff160361283f5760048160ff1610158015612837575060078160ff1611155b915050612858565b60068160ff161480612854575060078160ff16145b9150505b9392505050565b6000600b805490509050600080600090505b8281101561296a5761294a600b82815481106128905761288f613856565b5b90600052602060002090600302016040518060600160405290816000820160009054906101000a900473ffffffffffffffffffffffffffffffffffffffff1673ffffffffffffffffffffffffffffffffffffffff1673ffffffffffffffffffffffffffffffffffffffff168152602001600182015481526020016002820160009054906101000a900460ff16600281111561292e5761292d6130c7565b5b60028111156129405761293f6130c7565b5b8152505085612d6c565b826129559190613f45565b9150808061296290613f79565b915050612871565b50804710156129b25747816040517fcf4791810000000000000000000000000000000000000000000000000000000081526004016129a9929190613a2c565b60405180910390fd5b60005b82811015612b92576000612a90600b83815481106129d6576129d5613856565b5b90600052602060002090600302016040518060600160405290816000820160009054906101000a900473ffffffffffffffffffffffffffffffffffffffff1673ffffffffffffffffffffffffffffffffffffffff1673ffffffffffffffffffffffffffffffffffffffff168152602001600182015481526020016002820160009054906101000a900460ff166002811115612a7457612a736130c7565b5b6002811115612a8657612a856130c7565b5b8152505086612d6c565b90506000811115612b7e57612aea600b8381548110612ab257612ab1613856565b5b906000526020600020906003020160000160009054906101000a900473ffffffffffffffffffffffffffffffffffffffff16826125ad565b600b8281548110612afe57612afd613856565b5b906000526020600020906003020160000160009054906101000a900473ffffffffffffffffffffffffffffffffffffffff1673ffffffffffffffffffffffffffffffffffffffff167f5afeca38b2064c23a692c4cf353015d80ab3ecc417b4f893f372690c11fbd9a682604051612b759190613008565b60405180910390a25b508080612b8a90613f79565b9150506129b5565b50505050565b3373ffffffffffffffffffffffffffffffffffffffff168173ffffffffffffffffffffffffffffffffffffffff1603612c06576040517f08c379a0000000000000000000000000000000000000000000000000000000008152600401612bfd9061400d565b60405180910390fd5b80600160006101000a81548173ffffffffffffffffffffffffffffffffffffffff021916908373ffffffffffffffffffffffffffffffffffffffff1602179055508073ffffffffffffffffffffffffffffffffffffffff1660008054906101000a900473ffffffffffffffffffffffffffffffffffffffff1673ffffffffffffffffffffffffffffffffffffffff167fed8889f560326eb138920d842192f0eb3dd22b4f139c87a2c57538e05bae127860405160405180910390a350565b60008060056000612cd485612f04565b815260200190815260200160002060009054906101000a900460ff16905060008160ff1614612d0f57600181612d0a919061402d565b612d20565b603460ff1683612d1f9190614062565b5b915050919050565b600181612d359190613b3e565b60056000612d4285612f04565b815260200190815260200160002060006101000a81548160ff021916908360ff1602179055505050565b6000600280811115612d8157612d806130c7565b5b826002811115612d9457612d936130c7565b5b03612dec57600280811115612dac57612dab6130c7565b5b83604001516002811115612dc357612dc26130c7565b5b03612de05760098360200151612dd99190614093565b9050612efe565b82602001519050612efe565b60006002811115612e0057612dff6130c7565b5b826002811115612e1357612e126130c7565b5b148015612e48575060006002811115612e2f57612e2e6130c7565b5b83604001516002811115612e4657612e456130c7565b5b145b15612e655760028360200151612e5e9190614093565b9050612efe565b60016002811115612e7957612e786130c7565b5b826002811115612e8c57612e8b6130c7565b5b148015612ec1575060016002811115612ea857612ea76130c7565b5b83604001516002811115612ebf57612ebe6130c7565b5b145b15612ef957601460138460200151612ed99190614093565b612ee391906140d5565b8360200151612ef29190613f45565b9050612efe565b600090505b92915050565b60008161ffff166010600760029054906101000a90046fffffffffffffffffffffffffffffffff166fffffffffffffffffffffffffffffffff16901b179050919050565b6040518060600160405280600390602082028036833780820191505090505090565b5080546000825560030290600052602060002090810190612f8b9190612f95565b50565b5060009055565b5b80821115612feb57600080820160006101000a81549073ffffffffffffffffffffffffffffffffffffffff021916905560018201600090556002820160006101000a81549060ff021916905550600301612f96565b5090565b6000819050919050565b61300281612fef565b82525050565b600060208201905061301d6000830184612ff9565b92915050565b600080fd5b600080fd5b61303681612fef565b811461304157600080fd5b50565b6000813590506130538161302d565b92915050565b60006020828403121561306f5761306e613023565b5b600061307d84828501613044565b91505092915050565b600073ffffffffffffffffffffffffffffffffffffffff82169050919050565b60006130b182613086565b9050919050565b6130c1816130a6565b82525050565b7f4e487b7100000000000000000000000000000000000000000000000000000000600052602160045260246000fd5b60038110613107576131066130c7565b5b50565b6000819050613118826130f6565b919050565b60006131288261310a565b9050919050565b6131388161311d565b82525050565b600060608201905061315360008301866130b8565b6131606020830185612ff9565b61316d604083018461312f565b949350505050565b60038110613186576131856130c7565b5b50565b600081905061319782613175565b919050565b60006131a782613189565b9050919050565b6131b78161319c565b82525050565b60006020820190506131d260008301846131ae565b92915050565b600060ff82169050919050565b6131ee816131d8565b82525050565b60038110613205576132046130c7565b5b50565b6000819050613216826131f4565b919050565b600061322682613208565b9050919050565b6132368161321b565b82525050565b60008115159050919050565b6132518161323c565b82525050565b600060c08201905061326c60008301896131e5565b61327960208301886131e5565b61328660408301876131e5565b61329360608301866131e5565b6132a0608083018561322d565b6132ad60a0830184613248565b979650505050505050565b600080fd5b600080fd5b600080fd5b60008083601f8401126132dd576132dc6132b8565b5b8235905067ffffffffffffffff8111156132fa576132f96132bd565b5b602083019150836020820283011115613316576133156132c2565b5b9250929050565b60008060006040848603121561333657613335613023565b5b600061334486828701613044565b935050602084013567ffffffffffffffff81111561336557613364613028565b5b613371868287016132c7565b92509250509250925092565b613386816131d8565b811461339157600080fd5b50565b6000813590506133a38161337d565b92915050565b6000602082840312156133bf576133be613023565b5b60006133cd84828501613394565b91505092915050565b600081519050919050565b600082825260208201905092915050565b60005b838110156134105780820151818401526020810190506133f5565b60008484015250505050565b6000601f19601f8301169050919050565b6000613438826133d6565b61344281856133e1565b93506134528185602086016133f2565b61345b8161341c565b840191505092915050565b600060a08201905061347b60008301886131e5565b61348860208301876131e5565b818103604083015261349a818661342d565b905081810360608301526134ae818561342d565b90506134bd60808301846131e5565b9695505050505050565b600063ffffffff82169050919050565b6134e0816134c7565b82525050565b60006020820190506134fb60008301846134d7565b92915050565b60006020820190506135166000830184613248565b92915050565b600060039050919050565b600081905092915050565b6000819050919050565b613545816131d8565b82525050565b6000613557838361353c565b60208301905092915050565b6000602082019050919050565b6135798161351c565b6135838184613527565b925061358e82613532565b8060005b838110156135bf5781516135a6878261354b565b96506135b183613563565b925050600181019050613592565b505050505050565b6000610180820190506135dd600083018b613570565b6135ea606083018a613570565b6135f760c08301896131e5565b61360460e08301886131e5565b6136126101008301876131e5565b6136206101208301866131e5565b61362e61014083018561322d565b61363c610160830184613248565b9998505050505050505050565b6003811061365657600080fd5b50565b60008135905061366881613649565b92915050565b60006020828403121561368457613683613023565b5b600061369284828501613659565b91505092915050565b6000819050919050565b6136ae8161369b565b82525050565b60006020820190506136c960008301846136a5565b92915050565b60006020820190506136e460008301846131e5565b92915050565b600061ffff82169050919050565b613701816136ea565b82525050565b600060208201905061371c60008301846136f8565b92915050565b600060208201905061373760008301846130b8565b92915050565b613746816130a6565b811461375157600080fd5b50565b6000813590506137638161373d565b92915050565b60006020828403121561377f5761377e613023565b5b600061378d84828501613754565b91505092915050565b6000819050919050565b60006137bb6137b66137b184613086565b613796565b613086565b9050919050565b60006137cd826137a0565b9050919050565b60006137df826137c2565b9050919050565b6137ef816137d4565b82525050565b600060208201905061380a60008301846137e6565b92915050565b60006fffffffffffffffffffffffffffffffff82169050919050565b61383581613810565b82525050565b6000602082019050613850600083018461382c565b92915050565b7f4e487b7100000000000000000000000000000000000000000000000000000000600052603260045260246000fd5b61388e8161369b565b82525050565b61389d81612fef565b82525050565b6138ac816136ea565b82525050565b6138bb816134c7565b82525050565b600081519050919050565b600082825260208201905092915050565b60006138e8826138c1565b6138f281856138cc565b93506139028185602086016133f2565b61390b8161341c565b840191505092915050565b600060c08301600083015161392e6000860182613885565b5060208301516139416020860182613894565b50604083015161395460408601826138a3565b50606083015161396760608601826138b2565b50608083015161397a60808601826138b2565b5060a083015184820360a086015261399282826138dd565b9150508091505092915050565b600060208201905081810360008301526139b98184613916565b905092915050565b6000815190506139d08161302d565b92915050565b6000602082840312156139ec576139eb613023565b5b60006139fa848285016139c1565b91505092915050565b6000604082019050613a1860008301856130b8565b613a2560208301846130b8565b9392505050565b6000604082019050613a416000830185612ff9565b613a4e6020830184612ff9565b9392505050565b7f4e487b7100000000000000000000000000000000000000000000000000000000600052601260045260246000fd5b7f4e487b7100000000000000000000000000000000000000000000000000000000600052601160045260246000fd5b6000613abe826131d8565b9150613ac9836131d8565b925082613ad957613ad8613a55565b5b828204905092915050565b6000613aef826131d8565b9150613afa836131d8565b925082613b0a57613b09613a55565b5b828206905092915050565b6000604082019050613b2a6000830185612ff9565b613b37602083018461312f565b9392505050565b6000613b49826131d8565b9150613b54836131d8565b9250828201905060ff811115613b6d57613b6c613a84565b5b92915050565b600061012082019050613b89600083018c6131e5565b613b96602083018b6131e5565b613ba3604083018a6131e5565b613bb060608301896131e5565b613bbd60808301886131e5565b613bca60a08301876131e5565b613bd760c08301866131e5565b613be460e08301856131e5565b613bf261010083018461322d565b9a9950505050505050505050565b7f4d7573742062652070726f706f736564206f776e657200000000000000000000600082015250565b6000613c366016836133e1565b9150613c4182613c00565b602082019050919050565b60006020820190508181036000830152613c6581613c29565b9050919050565b6000606082019050613c8160008301866130b8565b613c8e60208301856130b8565b613c9b60408301846130b8565b949350505050565b6000613cae826136ea565b9150613cb9836136ea565b9250828203905061ffff811115613cd357613cd2613a84565b5b92915050565b6000604082019050613cee600083018561382c565b613cfb60208301846136f8565b9392505050565b7f4f6e6c792063616c6c61626c65206279206f776e657200000000000000000000600082015250565b6000613d386016836133e1565b9150613d4382613d02565b602082019050919050565b60006020820190508181036000830152613d6781613d2b565b9050919050565b613d778161323c565b82525050565b602082016000820151613d936000850182613d6e565b50505050565b6000602082019050613dae6000830184613d7d565b92915050565b6000613dbf82613810565b91506fffffffffffffffffffffffffffffffff8203613de157613de0613a84565b5b600182019050919050565b6000604082019050613e01600083018561382c565b613e0e6020830184612ff9565b9392505050565b600081905092915050565b50565b6000613e30600083613e15565b9150613e3b82613e20565b600082019050919050565b6000613e5182613e23565b9150819050919050565b6000819050919050565b613e76613e7182612fef565b613e5b565b82525050565b60008160f01b9050919050565b6000613e9482613e7c565b9050919050565b613eac613ea7826136ea565b613e89565b82525050565b6000613ebe8285613e65565b602082019150613ece8284613e9b565b6002820191508190509392505050565b6000613ee982612fef565b9150613ef483612fef565b925082613f0457613f03613a55565b5b828206905092915050565b6000613f1a826136ea565b9150613f25836136ea565b9250828201905061ffff811115613f3f57613f3e613a84565b5b92915050565b6000613f5082612fef565b9150613f5b83612fef565b9250828201905080821115613f7357613f72613a84565b5b92915050565b6000613f8482612fef565b91507fffffffffffffffffffffffffffffffffffffffffffffffffffffffffffffffff8203613fb657613fb5613a84565b5b600182019050919050565b7f43616e6e6f74207472616e7366657220746f2073656c66000000000000000000600082015250565b6000613ff76017836133e1565b915061400282613fc1565b602082019050919050565b6000602082019050818103600083015261402681613fea565b9050919050565b6000614038826131d8565b9150614043836131d8565b9250828203905060ff81111561405c5761405b613a84565b5b92915050565b600061406d826136ea565b9150614078836136ea565b92508261408857614087613a55565b5b828206905092915050565b600061409e82612fef565b91506140a983612fef565b92508282026140b781612fef565b915082820484148315176140ce576140cd613a84565b5b5092915050565b60006140e082612fef565b91506140eb83612fef565b9250826140fb576140fa613a55565b5b82820490509291505056fea2646970667358221220f3378b0db7d4731f5f8594451665627c5ee0e1274eadb9dde5cb9bf4735c88e164736f6c63430008140033",
  "devdoc": {
    "author": "Decentralized-Baccarat",
    "kind": "dev",
    "methods": {
      "cardInfo(uint8)": {
        "returns": {
          "points": "   Baccarat point value (0-9)",
          "rank": "     0=Ace  1-8=2-9  9=10  10=J  11=Q  12=K",
          "rankStr": "  \"A\", \"2\"…\"10\", \"J\", \"Q\", \"K\"",
          "suit": "     0=♠  1=♥  2=♦  3=♣",
          "suitStr": "  \"Spades\", \"Hearts\", \"Diamonds\", \"Clubs\""
        }
      },
      "clearPendingRequest()": {
        "details": "Use only if the VRF callback permanently failed (e.g., ran out          of subscription LINK).  A new requestShoe() will be needed."
      },
      "constructor": {
        "params": {
          "keyHash": "Gas-lane key hash (controls max gas price per VRF request).",
          "subscriptionId": "Funded VRF v2.5 subscription ID.",
          "vrfCoordinator": "Chainlink VRF Coordinator address."
        }
      },
      "openBetting()": {
        "details": "Clears previous bets and round result; requires IDLE + shoe ready."
      },
      "placeBet(uint8)": {
        "params": {
          "betType": "0 = PLAYER  1 = BANKER  2 = TIE"
        }
      },
      "requestShoe()": {
        "details": "Requires IDLE state and no pending VRF request.          Subscribe + fund at https://vrf.chain.link and add this          contract as a consumer before calling."
      },
      "withdrawHouse(uint256)": {
        "details": "Only callable when IDLE (no active round) to protect player funds."
      }
    },
    "stateVariables": {
      "CALLBACK_GAS_LIMIT": {
        "details": "Lazy shuffle only stores a seed → callback needs minimal gas."
      },
      "CUT_CARD_POS": {
        "details": "When shoeIndex reaches CUT_CARD_POS the owner must request       a new shoe before the next round (≈ last 32 cards undealt)."
      },
      "s_shoeMap": {
        "details": "Sparse swap-map for the lazy Fisher-Yates shuffle.       Key   = (generation << 16) | position       Value = stored card + 1   (0 means \"not yet swapped\" → use pos % 52)       Using a generation prefix means we NEVER need to clear old entries:       a new shoe simply increments `s_generation` and old keys become       permanently unreachable."
      }
    },
    "title": "Baccarat",
    "version": 1
  },
  "userdoc": {
    "kind": "user",
    "methods": {
      "acceptOwnership()": {
        "notice": "Allows an ownership transfer to be completed by the recipient."
      },
      "cardInfo(uint8)": {
        "notice": "Human-readable description of a card (0-51)."
      },
      "clearPendingRequest()": {
        "notice": "Emergency escape: clear a stuck pending VRF request ID."
      },
      "contractBalance()": {
        "notice": "Contract's total ETH balance (house funds + pending player bets)."
      },
      "deal()": {
        "notice": "Close betting, deal cards according to standard Baccarat rules,          settle all bets, and pay winners. Dealing order:  Player₁ → Banker₁ → Player₂ → Banker₂                 [Player₃ if needed]  [Banker₃ if needed] Natural rule:   If either side totals 8 or 9 after two cards → stand. Player rule:    Draw if two-card total ≤ 5; stand on 6-7. Banker rule:    See _bankerDraws() for full rule table."
      },
      "depositHouse()": {
        "notice": "Deposit ETH so the house can cover winner payouts."
      },
      "getBet(uint256)": {
        "notice": "Retrieve a bet by index (bettor, amount, betType)."
      },
      "getBetCount()": {
        "notice": "Number of bets in the current round."
      },
      "getLastRound()": {
        "notice": "Player and banker cards from the last settled round."
      },
      "openBetting()": {
        "notice": "Open the betting window for a new round."
      },
      "owner()": {
        "notice": "Get the current owner"
      },
      "placeBet(uint8)": {
        "notice": "Place a bet on the current round outcome."
      },
      "remainingCards()": {
        "notice": "Cards remaining in the current shoe before cut-card."
      },
      "requestShoe()": {
        "notice": "Ask Chainlink VRF for a new random seed to shuffle the shoe."
      },
      "setCoordinator(address)": {
        "notice": "Sets the VRF Coordinator addressThis method should only be callable by the coordinator or contract owner"
      },
      "transferOwnership(address)": {
        "notice": "Allows an owner to begin transferring ownership to a new address."
      },
      "withdrawHouse(uint256)": {
        "notice": "Withdraw ETH from the contract."
      }
    },
    "notice": "On-chain Punto Banco (Baccarat) powered by Chainlink VRF v2.5. ══════════════════════════════════════════════════════════════════════════  SHOE  (8 decks · 416 cards) ══════════════════════════════════════════════════════════════════════════  Cards are represented as uint8 values 0-51 (position within one deck):    suit  = card / 13    (0=♠  1=♥  2=♦  3=♣)    rank  = card % 13    (0=A  1=2  …  8=9  9=T  10=J  11=Q  12=K)  Baccarat point value:    Ace → 1,  2-9 → face value,  10/J/Q/K → 0  The shoe is shuffled via a LAZY Fisher-Yates algorithm:    • Chainlink VRF supplies one 256-bit seed  (cheap callback, low gas).    • When a card at position i is needed, a pseudo-random index j ∈ [i, 415]      is derived from keccak256(seed, i).  The cards at i and j are swapped      in-place using a sparse mapping, and shoe[j] is returned.    • A per-shoe generation counter isolates each shoe without clearing storage. ══════════════════════════════════════════════════════════════════════════  GAME FLOW ══════════════════════════════════════════════════════════════════════════   IDLE ──requestShoe()──► (VRF pending)        ──fulfillRandomWords()──► IDLE (shoe ready)        ──openBetting()──► BETTING        ──placeBet() × N──► BETTING        ──deal()──► IDLE  (→ reshuffles if cut card reached) ══════════════════════════════════════════════════════════════════════════  PAYOUTS ══════════════════════════════════════════════════════════════════════════   Player wins → 1 : 1    (return = stake × 2)   Banker wins → 0.95 : 1 (return = stake + stake × 19/20)   Tie    wins → 8 : 1    (return = stake × 9)   Tie result  + Player/Banker bet → push (stake returned)",
    "version": 1
  },
  "storageLayout": {
    "storage": [
      {
        "astId": 29,
        "contract": "contracts/Baccarat.sol:Baccarat",
        "label": "s_owner",
        "offset": 0,
        "slot": "0",
        "type": "t_address"
      },
      {
        "astId": 31,
        "contract": "contracts/Baccarat.sol:Baccarat",
        "label": "s_pendingOwner",
        "offset": 0,
        "slot": "1",
        "type": "t_address"
      },
      {
        "astId": 1699,
        "contract": "contracts/Baccarat.sol:Baccarat",
        "label": "s_vrfCoordinator",
        "offset": 0,
        "slot": "2",
        "type": "t_contract(IVRFCoordinatorV2Plus)1848"
      },
      {
        "astId": 3445,
        "contract": "contracts/Baccarat.sol:Baccarat",
        "label": "s_subscriptionId",
        "offset": 0,
        "slot": "3",
        "type": "t_uint256"
      },
      {
        "astId": 3447,
        "contract": "contracts/Baccarat.sol:Baccarat",
        "label": "s_keyHash",
        "offset": 0,
        "slot": "4",
        "type": "t_bytes32"
      },
      {
        "astId": 3475,
        "contract": "contracts/Baccarat.sol:Baccarat",
        "label": "s_shoeMap",
        "offset": 0,
        "slot": "5",
        "type": "t_mapping(t_uint256,t_uint8)"
      },
      {
        "astId": 3477,
        "contract": "contracts/Baccarat.sol:Baccarat",
        "label": "s_shoeSeed",
        "offset": 0,
        "slot": "6",
        "type": "t_uint256"
      },
      {
        "astId": 3479,
        "contract": "contracts/Baccarat.sol:Baccarat",
        "label": "s_shoeIndex",
        "offset": 0,
        "slot": "7",
        "type": "t_uint16"
      },
      {
        "astId": 3481,
        "contract": "contracts/Baccarat.sol:Baccarat",
        "label": "s_generation",
        "offset": 2,
        "slot": "7",
        "type": "t_uint128"
      },
      {
        "astId": 3483,
        "contract": "contracts/Baccarat.sol:Baccarat",
        "label": "s_shoeReady",
        "offset": 18,
        "slot": "7",
        "type": "t_bool"
      },
      {
        "astId": 3528,
        "contract": "contracts/Baccarat.sol:Baccarat",
        "label": "s_roundState",
        "offset": 19,
        "slot": "7",
        "type": "t_enum(RoundState)3487"
      },
      {
        "astId": 3531,
        "contract": "contracts/Baccarat.sol:Baccarat",
        "label": "s_lastRound",
        "offset": 0,
        "slot": "8",
        "type": "t_struct(RoundInfo)3525_storage"
      },
      {
        "astId": 3535,
        "contract": "contracts/Baccarat.sol:Baccarat",
        "label": "s_bets",
        "offset": 0,
        "slot": "11",
        "type": "t_array(t_struct(Bet)3503_storage)dyn_storage"
      },
      {
        "astId": 3537,
        "contract": "contracts/Baccarat.sol:Baccarat",
        "label": "s_pendingVrfRequestId",
        "offset": 0,
        "slot": "12",
        "type": "t_uint256"
      }
    ],
    "types": {
      "t_address": {
        "encoding": "inplace",
        "label": "address",
        "numberOfBytes": "20"
      },
      "t_array(t_struct(Bet)3503_storage)dyn_storage": {
        "base": "t_struct(Bet)3503_storage",
        "encoding": "dynamic_array",
        "label": "struct Baccarat.Bet[]",
        "numberOfBytes": "32"
      },
      "t_array(t_uint8)3_storage": {
        "base": "t_uint8",
        "encoding": "inplace",
        "label": "uint8[3]",
        "numberOfBytes": "32"
      },
      "t_bool": {
        "encoding": "inplace",
        "label": "bool",
        "numberOfBytes": "1"
      },
      "t_bytes32": {
        "encoding": "inplace",
        "label": "bytes32",
        "numberOfBytes": "32"
      },
      "t_contract(IVRFCoordinatorV2Plus)1848": {
        "encoding": "inplace",
        "label": "contract IVRFCoordinatorV2Plus",
        "numberOfBytes": "20"
      },
      "t_enum(BetType)3491": {
        "encoding": "inplace",
        "label": "enum Baccarat.BetType",
        "numberOfBytes": "1"
      },
      "t_enum(Outcome)3495": {
        "encoding": "inplace",
        "label": "enum Baccarat.Outcome",
        "numberOfBytes": "1"
      },
      "t_enum(RoundState)3487": {
        "encoding": "inplace",
        "label": "enum Baccarat.RoundState",
        "numberOfBytes": "1"
      },
      "t_mapping(t_uint256,t_uint8)": {
        "encoding": "mapping",
        "key": "t_uint256",
        "label": "mapping(uint256 => uint8)",
        "numberOfBytes": "32",
        "value": "t_uint8"
      },
      "t_struct(Bet)3503_storage": {
        "encoding": "inplace",
        "label": "struct Baccarat.Bet",
        "members": [
          {
            "astId": 3497,
            "contract": "contracts/Baccarat.sol:Baccarat",
            "label": "bettor",
            "offset": 0,
            "slot": "0",
            "type": "t_address"
          },
          {
            "astId": 3499,
            "contract": "contracts/Baccarat.sol:Baccarat",
            "label": "amount",
            "offset": 0,
            "slot": "1",
            "type": "t_uint256"
          },
          {
            "astId": 3502,
            "contract": "contracts/Baccarat.sol:Baccarat",
            "label": "betType",
            "offset": 0,
            "slot": "2",
            "type": "t_enum(BetType)3491"
          }
        ],
        "numberOfBytes": "96"
      },
      "t_struct(RoundInfo)3525_storage": {
        "encoding": "inplace",
        "label": "struct Baccarat.RoundInfo",
        "members": [
          {
            "astId": 3507,
            "contract": "contracts/Baccarat.sol:Baccarat",
            "label": "playerCards",
            "offset": 0,
            "slot": "0",
            "type": "t_array(t_uint8)3_storage"
          },
          {
            "astId": 3511,
            "contract": "contracts/Baccarat.sol:Baccarat",
            "label": "bankerCards",
            "offset": 0,
            "slot": "1",
            "type": "t_array(t_uint8)3_storage"
          },
          {
            "astId": 3513,
            "contract": "contracts/Baccarat.sol:Baccarat",
            "label": "playerCount",
            "offset": 0,
            "slot": "2",
            "type": "t_uint8"
          },
          {
            "astId": 3515,
            "contract": "contracts/Baccarat.sol:Baccarat",
            "label": "bankerCount",
            "offset": 1,
            "slot": "2",
            "type": "t_uint8"
          },
          {
            "astId": 3517,
            "contract": "contracts/Baccarat.sol:Baccarat",
            "label": "playerTotal",
            "offset": 2,
            "slot": "2",
            "type": "t_uint8"
          },
          {
            "astId": 3519,
            "contract": "contracts/Baccarat.sol:Baccarat",
            "label": "bankerTotal",
            "offset": 3,
            "slot": "2",
            "type": "t_uint8"
          },
          {
            "astId": 3522,
            "contract": "contracts/Baccarat.sol:Baccarat",
            "label": "outcome",
            "offset": 4,
            "slot": "2",
            "type": "t_enum(Outcome)3495"
          },
          {
            "astId": 3524,
            "contract": "contracts/Baccarat.sol:Baccarat",
            "label": "settled",
            "offset": 5,
            "slot": "2",
            "type": "t_bool"
          }
        ],
        "numberOfBytes": "96"
      },
      "t_uint128": {
        "encoding": "inplace",
        "label": "uint128",
        "numberOfBytes": "16"
      },
      "t_uint16": {
        "encoding": "inplace",
        "label": "uint16",
        "numberOfBytes": "2"
      },
      "t_uint256": {
        "encoding": "inplace",
        "label": "uint256",
        "numberOfBytes": "32"
      },
      "t_uint8": {
        "encoding": "inplace",
        "label": "uint8",
        "numberOfBytes": "1"
      }
    }
  }
}